:020000020000FC
:10000000BB98B89AB99ABA9ABC9A24E6D5E0DABDF8
:10001000E3E0E3BF7CEF7C3FF9F5B39B04C0FBCF8B
:10002000B39BF9CFFDCF12D03FD010D045D00ED02A
:100030004BD00CD051D00AD057D008D05DD006D0CC
:1000400063D004D069D002D06FD0EDCF0AB510E0F4
:100050001ABD18B7116018BF22BF0ABDB39BE0CF0D
:1000600018B711FFFBCF08957F938F939F93A8E05C
:10007000982F972349F40CD09927880FAA95C1F798
:100080009F918F917F910895C198C09AC19AF4CFA2
:10009000C198C098C19A08957CEF81E0C49AC29833
:1000A000E3DFC29AC498089570E681E0C49AC298CA
:1000B000DBDFC29AC49808957AED81E0C49AC298B1
:1000C000D3DFC29AC498089572EF81E0C49AC298AF
:1000D000CBDFC29AC498089576E681E0C49AC298AC
:1000E000C3DFC29AC498089576EB81E0C49AC2989F
:1000F000BBDFC29AC49808957EEB81E0C49AC2988F
:10010000B3DFC29AC498089570EE81E0C49AC29891
:10011000ABDFC29AC49808957FEF81E0C49AC29879
:10012000A3DFC29AC498089576EE81E0C49AC2987B
:060130009BDFC29AC49897
:00000001FF
